:020000040800F2
:10000000D8970020DD010008CD120008CF120008AB
:10001000D3120008D7120008DB120008000000000D
:100020000000000000000000000000004501000882
:10003000DF1200080000000089010008E11200083A
:10004000F7010008F7010008F7010008F7010008B0
:10005000F7010008F7010008F7010008F7010008A0
:10006000F7010008F7010008F7010008F701000890
:10007000F7010008F7010008F7010008F701000880
:10008000F7010008F7010008F7010008F701000870
:10009000F7010008F7010008F7010008F701000860
:1000A000F7010008F7010008F7010008F701000850
:1000B000F7010008F7010008F7010008F701000840
:1000C000F7010008F7010008F7010008F701000830
:1000D000F7010008DB140008F51400080F150008EC
:1000E000F7010008F7010008F7010008F701000810
:1000F000F7010008F7010008F7010008F701000800
:10010000F7010008F7010008F7010008F7010008EF
:10011000F7010008F7010008F7010008F7010008DF
:10012000F7010008F7010008F7010008F7010008CF
:10013000DFF80CD003F094FE00480047E9100008F7
:10014000D8970020224B19680868B0E8F00F80F3B8
:100150000988BFF36F8F4FF0000080F311884EF0D5
:100160000D0E70470000000006480068006880F32C
:10017000088862B661B6BFF34F8FBFF36F8F00DFA1
:1001800000BF00BF08ED00E0EFF30980BFF36F8F01
:100190000F4B1A6820E9F00F106008B54FF05000BF
:1001A00080F31188BFF34F8FBFF36F8F02F05FFDB5
:1001B0004FF0000080F31188BDE808401968086816
:1001C000B0E8F00F80F30988BFF36F8F704700BF6E
:1001D00038000020EFF30580704700000648804794
:1001E00006480047FEE7FEE7FEE7FEE7FEE7FEE71C
:1001F000FEE7FEE7FEE7FEE7DF0200083101000848
:100200000CB50020019000906C48006840F48030EC
:100210006A49086000BF6948006800F40030009037
:100220000198401C0190009818B90198B0F5A06F92
:10023000F1D16248006800F4003010B10120009054
:1002400001E0002000900098012843D15C4800683C
:1002500040F010005A4908600846006820F003008A
:1002600008600846006840F0020008605348406893
:10027000524948600846406848600846406840F473
:10028000806048600846406820F47C10486008465A
:10029000406840F4E81048600846006840F080700C
:1002A000086000BF4548006800F000700028F9D0E1
:1002B0004248406820F003004049486008464068D2
:1002C00040F00200486000BF3C48406800F00C006D
:1002D0000828F9D10CBD10B5FFF792FF10BD10B57D
:1002E0003648006840F0010034490860084640681C
:1002F000344908403149486008460068324908409E
:100300002E4908600846006820F4802008600846EE
:10031000406820F4FE0048604FF41F008860FFF73B
:10032000DAFF4FF000602949086010BD10B50021C8
:1003300000200022214B5B6803F00C0121B104294D
:1003400006D0082928D107E0214B224C236027E062
:100350001F4B204C236023E0184B5B6803F47010A4
:10036000164B5B6803F48032022303EB904022B902
:10037000194B4343174C23600DE0104B5B6803F4AB
:10038000003323B1144B4343124C236003E0104B62
:100390004343104C236003E00D4B0E4C236000BF21
:1003A00000BF064B5B68C3F303130C4CE15C094BC5
:1003B0001B68CB40074C236010BD000000100240BA
:1003C000002002400000FFF8FFFFF6FE08ED00E00D
:1003D00000127A000000002000093D000400002007
:1003E00031490143314A1160704770B50021002343
:1003F0000F22C47804B32D4C246804F4E064C4F5DF
:10040000E064210AC1F10403CA40447804FA03F10C
:100410008478144021430901254C0678A1550478BD
:1004200004F01F050124AC4005786D11AD0005F105
:10043000E025C5F8004109E0047804F01F05012417
:10044000AC401C4D0678761145F8264070BD1A4A1E
:100450000A400243154B1B1F1A60704739B1134AFB
:10046000121D12680243114B1B1D1A6006E00F4A51
:10047000121D126882430D4B1B1D1A607047042821
:1004800008D14FF0E021096941F004014FF0E0226A
:10049000116107E04FF0E021096921F004014FF0FC
:1004A000E0221161704700000000FA050CED00E049
:1004B00000E400E080E100E080FFFF1F10B504468B
:1004C000CC48844208D10121042000F02DFB0021FA
:1004D000042000F029FB46E0C748844208D10121EE
:1004E000082000F021FB0021082000F01DFB3AE06D
:1004F000C248844208D10121102000F015FB0021E0
:10050000102000F011FB2EE0BD48844208D10121EB
:10051000202000F009FB0021202000F005FB22E054
:10052000B848844208D10121402000F0FDFA0021A2
:10053000402000F0F9FA16E0B348844208D10121C6
:10054000802000F0F1FA0021802000F0EDFA0AE0AE
:10055000AE48844207D10121801500F0E5FA002160
:10056000A01500F0E1FA10BD10B50121084600F019
:10057000DBFA0021012000F0D7FA10BD2DE9F0418F
:10058000024600250026002000230024002791F8C1
:1005900003C00CF00F0591F803C00CF0100CBCF177
:1005A000000F03D091F802C04CEA050591F800C095
:1005B000BCF1000F31D0146800202BE04FF0010C8B
:1005C0000CFA00F3B1F800C00CEA03069E4220D1F9
:1005D00083004FF00F0C0CFA03F7BC4305FA03FC41
:1005E0004CEA040491F803C0BCF1280F06D14FF087
:1005F000010C0CFA00FCC2F814C00AE091F803C028
:10060000BCF1480F05D14FF0010C0CFA00FCC2F808
:1006100010C0401C0828D1D31460B1F800C0BCF150
:10062000FF0F34DD546800202EE000F1080C4FF07D
:10063000010808FA0CF3B1F800C00CEA03069E4268
:1006400021D183004FF00F0C0CFA03F7BC4305FADD
:1006500003FC4CEA040491F803C0BCF1280F05D157
:1006600000F1080C08FA0CF8C2F8148091F803C0E5
:10067000BCF1480F07D100F1080C4FF0010808FA4F
:100680000CF8C2F81080401C0828CED35460BDE896
:10069000F0814FF6FF710180022181700421C17049
:1006A00070470246002093680B400BB1012000E028
:1006B000002070470146886880B2704702460020DB
:1006C000D3680B400BB1012000E0002070470146C9
:1006D000C86880B2704701617047416170470AB1D4
:1006E000016100E041617047C16070474FF48032A2
:1006F0000A43826181618261826982697047024630
:100700000020434B18684FF68073184040EA0210EF
:1007100008433F4B186070473E49C8617047F0B5C9
:100720000A46002300240021002500F00046B6F10F
:10073000004F02D1364EF16901E0354E7168C0F3C9
:10074000034583B200F44016B6F5401F08D121F0EE
:1007500070612F4E766826F070662D4F7E6012E035
:1007600000F48016B6F5801F06D1032606FA05F4BC
:10077000A14341F0706106E0460D360103FA06F62A
:10078000B14341F0706122B1460D360103FA06F61D
:10079000314300F00046B6F1004F02D11C4EF1612A
:1007A00001E01B4E7160F0BD30B500228B071C0FBD
:1007B0000F2303FA04F2164B08338C1053F824303D
:1007C0009343134C08348D1044F8253023468C1085
:1007D00053F824308C07240F00FA04F423430C4C04
:1007E00008348D1044F8253030BD0A49DC310860EA
:1007F0007047000000080140000C0140001001405B
:100800000014014000180140001C0140002001407C
:100810000000014000002042DF48006840F0010075
:10082000DD49086008464068DC490840DA4948600C
:1008300008460068DA490840D74908600846006859
:1008400020F4802008600846406820F4FE004860DC
:100850004FF41F0088607047CF49096821F4803148
:10086000CD4A11601146096821F480211160B0F56C
:10087000803F03D0B0F5802F0ED106E0C64909684D
:1008800041F48031C44A116007E0C349096841F46A
:10089000A021C14A116000E000BF00BF704710B541
:1008A00001460022002300204A11012A02D1BA4C3D
:1008B000236806E0022A02D1B74C236A01E0B64C55
:1008C000636A01F01F02012494401C400CB1012016
:1008D00000E0002010BD38B5002000900024002565
:1008E00000BF3120FFF7DBFF05460098401C009059
:1008F0000098B0F5A06F01D0002DF2D03120FFF7A5
:10090000CEFF08B1012400E00024204638BD014696
:100910000020A14A106820F0F80040EAC1001060F1
:100920007047A04908607047024600209A4B5868FB
:1009300020F47C1042EA01031843974B586070473B
:1009400098490866704701460020934A506820F095
:1009500003000843506070478F48406800F00C0067
:100960007047014600208C4A506820F0F000084390
:100970005060704701460020874A506820F4E060CC
:1009800008435060704701460020834A506820F4B5
:10099000605040EAC1005060704729B17E4A527AE7
:1009A00002437D4B5A7204E07B4A527A82437A4B6F
:1009B0005A7270477B49D831086070470146002061
:1009C000754A506820F44040084350607047002149
:1009D000714A20321170704A82F82010012802D02A
:1009E00004280AD104E001216B4A2032117005E08D
:1009F0000521694A2032117000E000BF00BF704736
:100A00006949086070476449096A0143624A116292
:100A10007047654944390860704730B500210022AD
:100A2000002400235C4D6D6805F00C0121B1042900
:100A300005D0082923D105E05C4D056022E05B4D1F
:100A400005601FE0544D6D6805F47012524D6D68DD
:100A500005F48034022505EB92421CB9544D5543F0
:100A600005600BE04C4D6D6805F400351DB1504D2F
:100A70005543056002E04D4D5543056002E04B4D86
:100A8000056000BF00BF444D6D6805F0F001090925
:100A9000484D6B5C0568DD4045603F4D6D6805F471
:100AA000E061090A434D6B5C4568DD4085603A4D65
:100AB0006D6805F46051C90A3E4D6B5C4568DD40C8
:100AC000C560354D6D6805F44041890B3A4D6B5C4E
:100AD000C568B5FBF3F5056130BD29B12E4A5269F1
:100AE00002432D4B5A6104E02B4A526982432A4B40
:100AF0005A61704729B1284A92690243264B9A618C
:100B000004E0254A92698243234B9A61704729B1D8
:100B1000214AD2690243204BDA6104E01E4AD269BD
:100B200082431D4BDA61704729B11B4AD2680243E8
:100B3000194BDA6004E0184AD2688243164BDA6037
:100B4000704729B1144A12690243134B1A6104E039
:100B5000114A12698243104B1A6170471249403999
:100B6000086070470F49C86470470B49C8717047E7
:100B70000948406A40F08070074948627047014662
:100B80000020054A92680A400AB1012000E00020D6
:100B90007047014988727047001002400000FFF85A
:100BA000FFFFF6FE000042428004424200127A003B
:100BB00000093D00140000202400002010B5044668
:100BC000FB48844209D101218803FFF7ADFF0021D2
:100BD0004FF48040FFF7A8FF32E0F648844209D185
:100BE00001214804FFF7ADFF00214FF40030FFF76B
:100BF000A8FF25E0F048844209D101218804FFF7CD
:100C0000A0FF00214FF48020FFF79BFF18E0EB4886
:100C1000844209D10121C804FFF793FF00214FF45A
:100C20000020FFF78EFF0BE0E548844208D1012148
:100C30000805FFF786FF00214FF48010FFF781FFC2
:100C400010BD2DE9F04786B005460E460024A246A9
:100C500000BFA1460027B08900B100BF2F462C8AF3
:100C60004CF6FF700440F08804432C82AC894EF6A9
:100C7000F3100440B0883189084371890843044364
:100C8000AC81AC8A4FF6FF400440B0890443AC828B
:100C900001A8FFF7C2FEC648874202D1DDF810A0C6
:100CA00001E0DDF80CA0A88900F4004040B10AEB97
:100CB000CA0000EB0A1031684900B0FBF1F807E008
:100CC0000AEBCA0000EB0A1031688900B0FBF1F8AA
:100CD0006420B8FBF0F004012009642101FB1089B5
:100CE000A88900F4004040B1322000EBC900B0FBFD
:100CF000F1F000F00700044308E0322000EB091097
:100D00006421B0FBF1F000F00F0004432C8106B029
:100D1000BDE8F0874FF41651016000218180C18049
:100D200001810C21418100218181704710B502466B
:100D30000020108A4FF2FF0318400B884C88234391
:100D40008C882343CC8823431843108210BD002194
:100D5000018041808180C180704721B1828942F445
:100D60000052828104E082894DF6FF731A4082812D
:100D70007047F0B50346002400260025002040F609
:100D80006A17B94200D100BF1846C1F3421401F0FE
:100D90001F06012707FA06F5012C01D10C3004E0EB
:100DA000022C01D1103000E014301AB107682F4333
:100DB000076002E00768AF430760F0BD1AB1838A9D
:100DC0000B43838202E0838A8B4383827047028ACB
:100DD0004FF6F0731A400282028A0A430282704779
:100DE00082894FF2FF731A40828182890A4382818D
:100DF000704721B1828942F00202828104E0828937
:100E00004FF6FD731A4082817047028A4FF6DF73F6
:100E10001A400282028A0A430282704721B1028A82
:100E200042F48042028204E0028A4BF6FF731A40C9
:100E300002827047C1F308028280704701468888A9
:100E4000C0F308007047818941F00101818170473A
:100E5000028BD2B20283028B42EA012202837047E4
:100E6000028B02F47F420283028B0A4302837047A3
:100E700021B1828A42F02002828204E0828A4FF607
:100E8000DF731A408282704721B1828A42F01002D9
:100E9000828204E0828A4FF6EF731A4082827047A2
:100EA00021B1828A42F00802828204E0828A4FF6EF
:100EB000F7731A408282704721B1828942F400425E
:100EC000828103E08289C2F30E028281704721B1E0
:100ED000828A42F40062828204E0828A4FF2FF73C7
:100EE0001A4082827047828A4FF6FB731A408282D0
:100EF000828A0A438282704721B1828A42F00202CA
:100F0000828204E0828A4FF6FD731A408282704723
:100F100002460020B1F5007F00D100BF13880B40CE
:100F20000BB1012000E00020704701F40072B2F51F
:100F3000007F00D100BFCA430280704770B50246EF
:100F4000002400230025002040F66A16B14200D19B
:100F500000BFC1F3421501F01F03012606FA03F397
:100F6000012D02D19689334006E0022D02D1168A66
:100F7000334001E0968A33400C12012606FA04F44D
:100F80001688344013B10CB1012000E0002070BD80
:100F900010B50022002340F66A14A14200D100BF20
:100FA0000A1201249440A3B2DC43048010BD000067
:100FB000003801400044004000480040004C004020
:100FC000005000401CB50124574800680190564865
:100FD000001D0068009028E002215448FFF761FBE3
:100FE00000281FD152A002F06DFF00231A4601A96C
:100FF0005548006800F0ADFC0446012C02D153A016
:1010000002F060FF58A002F05DFF01230022694654
:101010004D48006800F09DFC0446012C02D158A008
:1010200002F050FFC82001F0F7FCD5E708B5012415
:1010300020E04FF0FF3269464348006800F058FE58
:101040000446012C12D155A002F03CFF9DF800107F
:1010500057A002F037FF9DF8011055A002F032FFB3
:101060009DF8021052A002F02DFF03E0214652A08D
:1010700002F028FFDDE71CB5012402F071FC00221C
:101080000121022000F0BDFB2F49086008460068DE
:1010900010B152A002F016FF5848022100230A02A4
:1010A000CDE9001056A15A4801F034FA0446012C4B
:1010B00002D158A002F006FF5C48032100234FF440
:1010C0000072CDE900105AA15C4801F023FA0446F1
:1010D000012C02D15AA002F0F5FE5F48006801F031
:1010E00067FA02F060FC1CBD1CB5012400F0E2F8B8
:1010F0005AA002F0E7FE61A002F0E4FE564801218A
:1011000000234A02CDE9001065A1694801F002FA06
:101110000446012C02D101F026FF02E04FF0FF301F
:101120001CBD0020FCE70000C44100080010014085
:10113000B7A2CBCDCFFBCFA253656E645F44617481
:101140006131210D0A00000028000020B7A2CBCD9C
:10115000CFFBCFA253656E645F4461746131B3C944
:10116000B9A6210D0A000000B7A2CBCDCFFBCFA2BC
:1011700053656E645F4461746132210D0A000000A2
:10118000B7A2CBCDCFFBCFA253656E645F44617431
:101190006132B3C9B9A6210D0A000000B6D3C1D08F
:1011A000CAD5B5BDB5C4CAFDBEDDA3BA0D0A0000DF
:1011B00025640D0A00000000CAFDBEDDBDD3CAD5FE
:1011C000B4EDCEF3A3ACB4EDCEF3B4FAC2EB20A3EE
:1011D000BA3078256C780D0A00000000B4B4BDA8C0
:1011E000546573745F5175657565CFFBCFA2B6D337
:1011F000C1D0B3C9B9A6A3A10D0A000030000020D8
:10120000526563656976655F5461736B0000000029
:101210002D100008B4B4BDA84C4544315F5461732F
:101220006BC8CECEF1B3C9B9A60D0A0034000020B8
:1012300053656E645F5461736B000000C50F000856
:10124000B4B4BDA84C4544325F5461736BC8CECE74
:10125000F1B3C9B9A60D0A002C000020B0B4CFC26A
:101260004B455931BBF2D5DF4B455932B7A2CBCDF7
:10127000B6D3C1D0CFFBCFA20D0A00005265636583
:10128000697665C8CECEF1BDD3CAD5B5BDCFFBCF8B
:10129000A2D4DAB4AEBFDABBD8CFD40D0A000000B6
:1012A0004170705461736B43726561746500000036
:1012B0007710000810B54FF44070FFF791F84FF425
:1012C000E13000F046F800F0A5F910BD704700BF0E
:1012D000FEE700BFFEE700BFFEE700BFFEE7704786
:1012E00010B502F008F8012801D002F074FB10BD1F
:1012F00008B525208DF8000007208DF8010000209A
:101300008DF8020001208DF803006846FFF76DF8A4
:1013100008BD08B526208DF8000001208DF80100D9
:101320008DF802008DF803006846FFF75EF808BDEF
:1013300008B527208DF8000001208DF8010003205A
:101340008DF8020001208DF803006846FFF74DF884
:1013500008BD10B586B00446012144F20400FFF731
:10136000C9FB4FF40070ADF8140018208DF8170079
:1013700003208DF8160005A99848FFF7FFF84FF4F1
:101380008060ADF8140004208DF8170005A993487B
:10139000FFF7F4F801940020ADF80800ADF80A005A
:1013A000ADF80C00ADF810000C20ADF80E0001A94E
:1013B0008B48FFF746FCFFF79BFF012240F22551C7
:1013C0008748FFF7D6FC01218548FFF7C6FC06B029
:1013D00010BD10B586B0044601210420FFF78AFB3A
:1013E00001214804FFF793FB0420ADF814001820F6
:1013F0008DF8170003208DF8160005A97748FFF730
:10140000BDF80820ADF8140004208DF8170005A9D8
:101410007248FFF7B3F801940020ADF80800ADF86A
:101420000A00ADF80C00ADF810000C20ADF80E006D
:1014300001A96C48FFF705FCFFF76BFF012240F2A2
:1014400025516848FFF795FC01216648FFF785FCA8
:1014500006B010BD10B586B0044601210820FFF784
:1014600049FB01218804FFF752FB4FF48060ADF87F
:10147000140018208DF8170003208DF8160005A918
:101480005948FFF77BF84FF40060ADF814000420D2
:101490008DF8170005A95448FFF770F80194002053
:1014A000ADF80800ADF80A00ADF80C00ADF810007A
:1014B0000C20ADF80E0001A94C48FFF7C2FBFFF766
:1014C00037FF012240F225514848FFF752FC012125
:1014D0004648FFF742FC06B010BD10B540F225515A
:1014E0003F48FFF72BFD20B140F225513C48FFF764
:1014F0004FFD10BD10B540F225513A48FFF71EFDD3
:1015000020B140F225513748FFF742FD10BD10B51C
:1015100040F225513548FFF711FD20B140F2255129
:101520003248FFF735FD10BD70B504460D4629461B
:101530002046FFF77FFC00BF80212046FFF7E8FC34
:101540000028F9D070BD2DE9F04107460D4616463A
:10155000002405E0295D3846FFF7E6FF601CC4B2B1
:10156000B442F7DB00BF40213846FFF7D1FC00282A
:10157000F9D0BDE8F08170B506460C46002500BFE5
:10158000615D3046FFF7D0FF6D1C605D0028F7D12C
:1015900000BF40213046FFF7BBFC0028F9D070BDEA
:1015A0002DE9F04105460C46260AE7B231462846A9
:1015B000FFF740FC00BF80212846FFF7A9FC002868
:1015C000F9D039462846FFF735FC00BF8021284670
:1015D000FFF79EFC0028F9D0BDE8F081000801402B
:1015E0000038014000440040000C01400048004029
:1015F00070B504460D46E1B20548FFF71BFC00BF7D
:1016000080210348FFF784FC0028F9D0204670BDF4
:101610000038014008B501213420FFF76BFA4FF480
:101620008070ADF8000010208DF8030003208DF8C5
:10163000020069461F48FEF7A1FF0420ADF8000034
:1016400010208DF8030003208DF8020069461A4827
:10165000FEF794FF42F20200ADF8000048208DF83A
:10166000030069461548FEF789FF4FF48071114861
:10167000FFF731F804211048FFF72DF808BD10B529
:101680004FF480710B48FFF726F810BD10B54FF4EA
:1016900080710848FFF721F810BD10B504210648F5
:1016A000FFF719F810BD10B504210348FFF715F82E
:1016B00010BD00000008014000140140001001406E
:1016C00000F1080141604FF0FF31816000F1080135
:1016D000C160016100210160704700210161704714
:1016E00042684A6093688B609368596091600861B2
:1016F00003685B1C0360704710B502460B685C1CF6
:101700000CB9106907E002F1080000E04068446885
:1017100024689C42FAD944684C604C68A160886097
:1017200041600A611468641C146010BD01460A69B6
:10173000D1E901309860D1E90103586050688842CE
:1017400001D188685060002008611068401E106058
:101750001068704770B505460E462C462CB940F20D
:101760000312F8A1FEA002F0ADFB02F0F9F8D4E9F3
:101770000F12206801FB0200A0600020A063206817
:101780006060E06B401E226C216800FB0211E1608A
:10179000FF2084F8440084F845009EB9206908B908
:1017A000012000E00020A8B904F1100001F0C5FC00
:1017B00080B14FF08050EE490860BFF34F8FBFF308
:1017C0006F8F07E004F11000FFF77AFF04F12400A7
:1017D000FFF776FF02F0E7F8012070BD2DE9F04138
:1017E00006460D4617469846069C0DB9246000E053
:1017F0002760E663256401212046FFF7ABFFBDE8C3
:10180000F0812DE9F84305460E4617460DB101203B
:1018100000E0002028B94FF4BB72CAA1D0A002F0AA
:1018200051FB05FB06F909F1480002F0A4F9044652
:101830004CB1A04608F148083B464246314628468E
:101840000094FFF7CBFF2046BDE8F88370B504464F
:1018500002F086F894F9455010E0606A08B901205A
:1018600000E0002038B904F1240001F066FC18B152
:1018700001F03AFD00E003E0681E45B2002DECDC0B
:1018800000BFFF2084F8450002F08DF802F068F8F0
:1018900094F9445010E0206908B9012000E00020CC
:1018A00048B904F1100001F048FC08B101F01CFD3A
:1018B000681E45B200E001E0002DECDC00BFFF2017
:1018C00084F8440002F06FF870BD70B5054602F070
:1018D00047F8A86BE96B884201D1012400E000249D
:1018E00002F061F8204670BD2DE9F04104460F4634
:1018F00015464FF00008A66B206C28B37DB9394619
:10190000226C606802F068FA216C606808446060CC
:10191000D4E90101884217D32068606014E0394699
:10192000226CE06802F058FA216CE068411AE1602C
:101930002168E068884203D2216CA068411AE16006
:10194000022D01D106B1761E701CA0634046BDE891
:10195000F0812DE9FF4383B0064688461D464FF0CF
:10196000000934462CB940F2EA2276A17CA002F0AC
:10197000A9FAB8F1000F01D1206C08B9012000E0EC
:10198000002028B940F2EB226EA175A002F09AFA6D
:10199000022D02D1E06B012801D1012000E00020DE
:1019A00028B94FF43B7267A16DA002F08BFA01F0E9
:1019B000A2FC08B9059808B9012000E0002028B968
:1019C00040F2EF225FA166A002F07CFA00BF01F0B6
:1019D000C7FFA06BE16B884201D3022D28D12A46B4
:1019E00041462046FFF780FF0746606A08B901209C
:1019F00000E0002068B904F1240001F09EFB88B1EA
:101A00004FF080505A490860BFF34F8FBFF36F8F7C
:101A100008E03FB14FF0805055490860BFF34F8F49
:101A2000BFF36F8F01F0BFFF012007B0BDE8F08367
:101A3000059818B901F0B7FF0020F6E7B9F1000FDB
:101A400004D101A801F00DFC4FF0010901F0ABFF3A
:101A500000F081FF01F084FF94F94400401C10B9AC
:101A6000002084F8440094F94500401C10B900207F
:101A700084F8450001F097FF05A901A801F0F8FBE3
:101A8000F0B92046FFF721FFA0B104F1100005993D
:101A900001F010FB2046FFF7D9FE00F0B1FE002850
:101AA00095D14FF0805032490860BFF34F8FBFF39C
:101AB0006F8F8CE72046FFF7C9FE00F0A1FE86E796
:101AC0002046FFF7C3FE00F09BFE0020ADE72DE9A6
:101AD000F84F07468A4690461E463C462CB94FF4BE
:101AE0006F7218A11EA002F0EDF9BAF1000F01D13A
:101AF000206C08B9012000E0002028B940F2BD3276
:101B000010A117A002F0DEF9022E02D1E06B01282D
:101B100001D1012000E0002028B940F2BE3209A125
:101B20000FA002F0CFF901F06EFF00BF5021EFF3DC
:101B3000118081F31188BFF34F8FBFF36F8F00BF08
:101B4000054617E02E2E5C2E2E5C467265655254BB
:101B50004F535C7363725C71756575652E6300002D
:101B60004572726F723A25732C25640D0A000000CD
:101B700004ED00E0A06BE16B884201D3022E25D179
:101B800094F945B0A06B0090324651462046FFF7CD
:101B9000ABFE0BF1010088B9606A08B9012000E0D2
:101BA000002050B904F1240001F0C7FA28B1B8F1BF
:101BB000000F02D00120C8F8000004E00BF1010082
:101BC00040B284F845004FF0010901E04FF00009F0
:101BD00000BF85F3118800BF4846BDE8F88F2DE9A6
:101BE000F04706460F4634463CB940F26442AFF235
:101BF000AC01AFF2940002F065F9206C08B9012045
:101C000000E0002038B94FF48D62AFF2C801AFF2A6
:101C1000B00002F057F9206808B9A06808B901209F
:101C200000E0002038B940F26D42AFF2E801AFF2B7
:101C3000D00002F047F901F0E6FE00BF5021EFF3BB
:101C4000118081F31188BFF34F8FBFF36F8F00BFF7
:101C50000546D4F83890E06B48451ED994F945A064
:101C600009F10100A0630AF1010070B9606A08B9C6
:101C7000012000E0002068B904F1240001F05DFAC1
:101C800040B13FB10120386004E00AF1010040B2E8
:101C900084F845004FF0010801E04FF0000800BF54
:101CA00085F3118800BF4046BDE8F08770B5054652
:101CB00001F056FEA86B08B9012400E0002401F0F1
:101CC00072FE204670BD70B504460D46206C70B1A2
:101CD000216CE0680144E160D4E90210884201D33C
:101CE0002168E1602846226CE16802F075F870BD59
:101CF0002DE9F74183B005460E464FF000082C460B
:101D00003CB940F20452AFF2C411AFF2AC1002F091
:101D1000D9F80EB9206C08B9012000E0002038B9CC
:101D20004FF4A162AFF2E411AFF2CC1002F0CAF8A6
:101D300001F0E1FA08B9059808B9012000E0002097
:101D400038B940F20D52AFF20421AFF2EC1002F0BC
:101D5000B9F800BF01F004FEA76BF7B13146204689
:101D6000FFF7B1FF781EA063206908B9012000E0E9
:101D7000002060B904F1100001F0DFF938B14FF034
:101D80008050FB490860BFF34F8FBFF36F8F01F0A6
:101D90000AFE012006B0BDE8F081059818B901F0EF
:101DA00002FE0020F6E7B8F1000F04D101A801F00F
:101DB00058FA4FF0010801F0F6FD00F0CCFD01F0FB
:101DC000CFFD94F94400401C10B9002084F8440071
:101DD00094F94500401C10B9002084F8450001F03A
:101DE000E2FD05A901A801F043FAF0B92046FFF78A
:101DF0005DFFA0B104F12400059901F05BF92046D4
:101E0000FFF724FD00F0FCFC0028A3D14FF0805028
:101E1000D7490860BFF34F8FBFF36F8F9AE7204613
:101E2000FFF714FD00F0ECFC94E72046FFF70EFDF1
:101E300000F0E6FC2046FFF739FF00288AD000209A
:101E4000A8E7F3B583B0054600272C463CB940F21D
:101E50009552AFF21031AFF2F82002F033F8206C57
:101E600008B9012000E0002038B940F29952AFF2E1
:101E70002C31AFF2143002F025F801F03CFA08B929
:101E8000049808B9012000E0002038B940F29E52C1
:101E9000AFF25031AFF2383002F014F800BF01F069
:101EA0005FFDA66BCEB1701EA063206908B901204A
:101EB00000E0002060B904F1100001F03EF938B1F3
:101EC0004FF08050AA490860BFF34F8FBFF36F8F68
:101ED00001F069FD012005B0F0BD049818B901F0CA
:101EE00062FD0020F7E71FB901A801F0BAF9012748
:101EF00001F059FD00F02FFD01F032FD94F944008E
:101F0000401C10B9002084F8440094F94500401C9E
:101F100010B9002084F8450001F045FD04A901A88E
:101F200001F0A6F9F0B92046FFF7C0FEA0B104F118
:101F30002400049901F0BEF82046FFF787FC00F06A
:101F40005FFC0028ABD14FF0805089490860BFF397
:101F50004F8FBFF36F8FA2E72046FFF777FC00F0AB
:101F60004FFC9CE72046FFF771FC00F049FC20463F
:101F7000FFF79CFE002892D00020ACE72DE9F74344
:101F800082B005460E464FF000082C463CB940F2A0
:101F90006C62AFF25041AFF2384001F093FF0EB9DE
:101FA000206C08B9012000E0002038B94FF4CE625F
:101FB000AFF27041AFF2584001F084FF01F09BF99D
:101FC00008B9049808B9012000E0002038B940F2AF
:101FD0007562AFF29041AFF2784001F073FF00BF3D
:101FE00001F0BEFCD4F83890B9F1000F1ED0E768BC
:101FF00031462046FFF767FEE760606A08B90120B6
:1020000000E0002060B904F1240001F096F838B136
:102010004FF0805056490860BFF34F8FBFF36F8F6A
:1020200001F0C1FC012005B0BDE8F083049818B9A7
:1020300001F0B9FC0020F6E7B8F1000F04D16846C2
:1020400001F00FF94FF0010801F0ADFC00F083FC46
:1020500001F086FC94F94400401C10B9002084F87B
:10206000440094F94500401C10B9002084F8450054
:1020700001F099FC04A9684601F0FAF8F0B920468D
:10208000FFF714FEA0B104F12400049901F012F846
:102090002046FFF7DBFB00F0B3FB0028A0D14FF098
:1020A000805033490860BFF34F8FBFF36F8F97E7BE
:1020B0002046FFF7CBFB00F0A3FB91E72046FFF79C
:1020C000C5FB00F09DFB2046FFF7F0FD002887D000
:1020D0000020A8E72DE9F05F0646894617463446FA
:1020E0003CB940F2FF62AFF2A451AFF28C5001F064
:1020F000E9FEB9F1000F01D1206C08B9012000E020
:10210000002038B94FF4E062AFF2C851AFF2B050DE
:1021100001F0D8FE01F077FC00BF5021EFF31180F1
:1021200081F31188BFF34F8FBFF36F8F00BF054658
:10213000D4F838A0BAF1000F24D094F944B049463D
:102140002046FFF7C0FDAAF10100A0630BF10100DA
:1021500080B9206908B9012000E0002078B904F1B5
:10216000100000F0EAFF50B14FB10120386006E0E6
:1021700004ED00E00BF1010040B284F844004FF0A0
:10218000010801E04FF0000800BF85F3118800BF8F
:102190004046BDE8F09F2DE9F047064688463446A4
:1021A0003CB940F25B72AFF26461AFF24C6001F097
:1021B00089FEB8F1000F01D1206C08B9012000E0C0
:1021C000002038B940F25C72AFF28861AFF2706003
:1021D00001F078FE206C08B1012000E0002038B941
:1021E00040F25D72AFF2A461AFF28C6001F06AFE62
:1021F00001F009FC00BF5021EFF3118081F3118839
:10220000BFF34F8FBFF36F8F00BF0546A06B48B180
:10221000D4F80C9041462046FFF755FDC4F80C90C9
:10222000012700E0002700BF85F3118800BF384672
:10223000BDE8F08770B504463CB940F28E72AFF24B
:10224000FC61AFF2E46001F03DFE01F089FBA56B9B
:1022500001F0A9FB284670BD70B5044625463DB97E
:1022600040F29F72AFF22471AFF20C7001F02AFEBF
:1022700001F076FBD5E90E10461A01F094FB3046CA
:1022800070BD70B5044625463DB94FF4F662AFF215
:102290004C71AFF2347001F015FEAE6B304670BD7C
:1022A000014600200EE03A4A02EBC00252688A4220
:1022B00007D10022364B43F8302003EBC0035A60AD
:1022C00002E0401C0A28EED300BF704770B50446F8
:1022D00025463DB940F2BB72AFF29871AFF2807003
:1022E00001F0F0FD2846FFF7DBFF284601F0CBFCAC
:1022F00070BD70B5044626463EB940F60D12AFF2E9
:10230000BC71AFF2A47001F0DDFDB06B08B901251E
:1023100000E00025284670BD70B5044626463EB94B
:1023200040F63512AFF2E471AFF2CC7001F0CAFDA5
:10233000B06BF16B884201D1012500E000252846F1
:1023400070BD024600200BE0114B53F8303033B91A
:102350000F4B43F8301003EBC0035A6002E0401CFF
:102360000A28F1D300BF70470246002000210AE08E
:10237000074B03EBC1035B68934203D1044B53F853
:10238000310002E0491C0A29F2D300BF7047000067
:10239000A400002010B5002407E004EB8401F84AF3
:1023A00002EB8100FFF78CF9641C202CF5D3F54873
:1023B000FFF786F9F448FFF783F9F448FFF780F94F
:1023C000F348FFF77DF9F348FFF77AF9ED48F24952
:1023D0000860ED48F149086010BD10B5044601F0F1
:1023E000BFFAEF480068401CED490860ED480068FE
:1023F00040B9EC4804600846006801280DD1FFF799
:10240000C9FF0AE0E848006838B9E6480068C06AD1
:10241000E16A884201D8E3480460E4480068401C4F
:10242000E249086094F82C1001208840E0490968CE
:102430000843DF490860E16A01EB8101D04A02EB01
:102440008100211DFFF74CF901F0ADFAD648006874
:1024500068B1D4480068C06AE16A884207D24FF088
:102460008050D4490860BFF34F8FBFF36F8F10BD0A
:102470002DE9FF5F81460E469246DDE90E7B109CFA
:10248000AAF10100216B01EB800828F0070808F091
:10249000070008B9012000E0002028B94FF4597264
:1024A000C5A1CCA001F00EFD86B1002507E0715D4D
:1024B00004F134004155705D00B902E06D1C102D2F
:1024C000F5D300BF00214320015502E0002084F82D
:1024D0003400202F00D31F27E762201DFFF7FDF8EF
:1024E00004F11800FFF7F9F82461C7F12000A0619A
:1024F00064620020606484F8480049464046039ABC
:1025000001F084F92060BBF1000F01D0CBF800404E
:10251000BDE8FF9F2DE9FF4F85B0804689461746ED
:10252000DDE912ABB80001F026FB064656B14C209F
:1025300001F021FB04460CB1266304E0304601F0B3
:10254000A2FB00E000247CB10020CDE900ABCDE986
:1025500002403A4649464046089BFFF789FF20461D
:10256000FFF73BFF012501E04FF0FF35284609B09A
:10257000BDE8F08F88490968096809B9012100E0C0
:10258000002121B14FF0FF31964A116006E08249E7
:102590000968C968C868934A41681160704710B5F6
:1025A0000446206B01F06FFB204601F06CFB10BD70
:1025B00070B5054601F0D4F915B97A48006800E015
:1025C00028460446201DFFF7B1F878B9E06A00EB11
:1025D00080006B4951F8200040B994F82C1001207C
:1025E000884073490968814371480160A06A18B145
:1025F00004F11800FFF79AF86C480068401C6B491A
:10260000086068480068844209D1211D6048FFF7CE
:1026100067F875480068401C7349086009E0604825
:102620000068401E5E4908602046FFF7B8FFFFF7CC
:10263000A1FF01F0B8F95C480068C0B159480068D2
:10264000844214D16948006808B9012000E00020E4
:1026500028B940F2DA4258A15EA001F033FC4FF0F5
:10266000805054490860BFF34F8FBFF36F8F70BD28
:102670002DE9F0414FF000085C480068002877D150
:102680005B480068451C5A480560EDB9424800683F
:10269000006808B9012000E0002028B940F6A9220E
:1026A00045A14CA001F00EFC3B4807683B48006880
:1026B00039490860394807604E480068401C4D4958
:1026C0000860FFF757FF00BF4648006885423CD3CB
:1026D00000BF31480068006808B9012000E0002010
:1026E00020B14FF0FF303F4908602DE02A480068D4
:1026F000C068C4686668B54202D23A48066023E002
:10270000201DFFF713F8A06A18B104F11800FFF7B5
:102710000DF894F82C1001208840254909680843D9
:1027200023490860E16A01EB8101154A02EB81004F
:10273000211DFEF7D5FF1B49E06A0968C96A884276
:10274000C7D34FF00108C4E700BF16480068C06A4D
:1027500000EB80000A4951F82000012801D94FF010
:1027600001082548006808B14FF0010805E0FFE7BF
:1027700022480068401C214908604046BDE8F081BD
:10278000F400002074030020880300209C03002034
:10279000B0030020C40300203C00002040000020C3
:1027A0004800002038000020540000206400002071
:1027B0005000002004ED00E02E2E5C2E2E5C4672B0
:1027C000656552544F535C7363725C7461736B73D1
:1027D0002E6300004572726F723A25732C25640DCA
:1027E0000A00000068000020440000207000002063
:1027F0004C000020600000205C00002058000020F9
:1028000070B500240026FE48006838B940F69902E9
:10281000AFF25C01AFF2440001F054FB01F0A0F80C
:10282000F7480068401EF64908600846006800281E
:102830004FD1F448006800284BD024E0F248C0682B
:10284000C46804F11800FEF771FF201DFEF76EFF4B
:1028500094F82C1001208840EC4909680843EB49A2
:102860000860E16A01EB8101E94A02EB8100211D68
:10287000FEF736FFE749E06A0968C96A884202D371
:102880000120E5490860E048006808B9012000E03F
:1028900000200028D2D00CB1FFF76CFEDF4805689D
:1028A00065B100BFFFF7E4FE10B10120DA4908600E
:1028B0006D1E002DF6D10020D8490860D64800686A
:1028C00038B101263007D6490860BFF34F8FBFF3F8
:1028D0006F8F01F068F8304670BD2DE9F041054674
:1028E0000E46D0480768CB480068001DFEF71EFF63
:1028F00050B9C848006890F82C1001208840C3499E
:1029000009688143C1480160681C38B936B1C148C3
:102910000168091DC448FEF7E3FE1AE07C19BD48B2
:1029200000684460BC4207D2BA480168091DBF482C
:102930000068FEF7E1FE0CE0B6480168091DBC48DE
:102940000068FEF7D9FEBB480068844201D2B9484E
:102950000460BDE8F081AA480068401CA8490860EE
:1029600070472DE9F04704460F464FF000093CB987
:1029700040F2EE42AFF2C011AFF2A81001F0A2FA9D
:102980000FB1012000E0002038B940F2EF42AFF271
:10299000D811AFF2C01001F095FA9948006808B953
:1029A000012000E0002038B94FF49E62AFF2F81128
:1029B000AFF2E01001F086FAFFF7CDFF9948066804
:1029C0002068C5192068B04207D92068A8420BD9F1
:1029D000B54209D94FF0010906E02068A84201D8A4
:1029E000B54201D94FF001092560B9F1000F03D0BC
:1029F000A81B0021FFF771FFFFF702FF8046B8F127
:102A0000000F07D14FF0805085490860BFF34F8F0A
:102A1000BFF36F8FBDE8F08770B504460025BCB1E9
:102A20007748006808B9012000E0002038B940F27A
:102A30004452AFF27C21AFF2642001F043FAFFF779
:102A40008AFF00212046FFF748FFFFF7D9FE054621
:102A50003DB94FF0805072490860BFF34F8FBFF30C
:102A60006F8F70BD2DE9F04707463E463EB94FF4E3
:102A7000AE62AFF2BC21AFF2A42001F023FA6548A8
:102A80000068864201D1002426E000F069FF7569E4
:102A90006748D0F800906548D0F8008000F083FFC8
:102AA0004D4501D0454501D1022415E05E488542DF
:102AB0000BD1B06A38B996F84800012801D1022438
:102AC0000AE0032408E0022406E05B48854200D0C7
:102AD0000DB9042400E001242046BDE8F08770B55C
:102AE000044600F03DFF14B94A48006800E0204663
:102AF0000646F56A00F057FF284670BD2DE9F04103
:102B0000054600F080FF00BF5021EFF3118081F3F4
:102B10001188BFF34F8FBFF36F8F00BF044615B905
:102B20003C48006800E028460746FE6A00BF84F380
:102B3000118800BF3046BDE8F0812DE9F04780469E
:102B40000D464FF00009202D01D2012000E00020A9
:102B500038B940F20A62AFF2A031AFF2883001F02A
:102B6000B1F9202D00D31F2500F0FAFEB8F1000FB7
:102B700002D12848006800E040460446E66AAE42BA
:102B800071D0B5420BD92348006884420DD021484A
:102B90000068C06AA84208D84FF0010905E01D4846
:102BA0000068844201D14FF00109E76AE562A0693B
:102BB00000F0004010B9C5F12000A06107EB8701CB
:102BC000134A02EB81016069884201D1012000E0D3
:102BD000002098B3201DFEF7A9FD30B90120B840B0
:102BE0000A49096881430948016094F82C100120C2
:102BF000884006490968084304490860E16A1EE004
:102C000070000020480000209C030020500000209D
:102C1000F4000020380000205C0000205800002054
:102C200004ED00E04C000020C40300204000002020
:102C30003C00002068000020B003002007E001EB0A
:102C40008101FB4A02EB8100211DFEF749FDB9F12C
:102C5000000F07D04FF08050F6490860BFF34F8F48
:102C6000BFF36F8F00BF00F09EFEBDE8F08710B588
:102C7000F148006818B10120F04908602FE00020F9
:102C8000EE490860EE480068B0FA80F0C0F11F0419
:102C900004EB8400E64951F8200008B1012000E06F
:102CA000002038B940F6E132AFF2F441AFF2DC4037
:102CB00001F008F904EB8401DD4A02EB8100416870
:102CC0004968416000F1080142688A4202D14168C6
:102CD000496841604168C968DA4A116000BF10BDA7
:102CE00070B5054600F03CFE15B9D648006800E016
:102CF00028460446201DFEF719FD78B9E06A00EB6E
:102D00008000CB4951F8200040B994F82C100120E4
:102D10008840CB4909688143C9480160A06A18B15D
:102D200004F11800FEF702FD211DC748FEF7D8FC8C
:102D300094F84800012802D1002084F8480000F0EF
:102D400032FEC248006828B100F00AFEFFF712FC0C
:102D500000F029FEBB480068844226D1BB480068C9
:102D6000B8B1B548006808B9012000E0002038B9C2
:102D700040F2EC62AFF2C051AFF2A85001F0A2F8FD
:102D80004FF08050AB490860BFF34F8FBFF36F8F98
:102D90000BE0AD480068AE490968884203D10020C5
:102DA000A849086001E0FFF762FF70BD70B50546F5
:102DB00000262C463DB940F21672AFF20461AFF224
:102DC000EC5001F07FF8A0496069884201D10120F0
:102DD00000E0002070B19F49A06A884201D1012023
:102DE00000E0002030B9A06A08B9012000E000200E
:102DF00000B10126304670BD70B505462C463DB980
:102E00004FF4E862AFF25061AFF2386001F05AF867
:102E10008C48006884422BD054B300F0A1FD2046BA
:102E2000FFF7C4FF10B3201DFEF780FC94F82C10B0
:102E30000120884082490968084381490860E16AA5
:102E400001EB81017A4A02EB8100211DFEF748FC6B
:102E50007C49E06A0968C96A884207D34FF080500C
:102E600074490860BFF34F8FBFF36F8F00F09BFD75
:102E700070BD2DE9F0410646002734463EB940F2C8
:102E80007772AFF2CC61AFF2B46001F01BF800F0E2
:102E9000BAFD00BF5021EFF3118081F31188BFF319
:102EA0004F8FBFF36F8F00BF05462046FFF77EFFB1
:102EB00020B361480068E0B96249E06A0968C96AFC
:102EC000884200D30127201DFEF730FC94F82C1017
:102ED000012088405A490968084359490860E16A55
:102EE00001EB8101524A02EB8100211DFEF7F8FB44
:102EF00004E004F118015748FEF7F2FB00BF85F328
:102F0000118800BF3846BDE8F08110B516E000F02A
:102F100027FD5148C068C468201DFEF707FC4C48D7
:102F20000068401E4A4908604C480068401E4B49F2
:102F3000086000F038FD2046FFF731FB4748006885
:102F40000028E4D110BD00BFFFF7DFFF384800685C
:102F50000128F9D94FF0805036490860BFF34F8FF0
:102F6000BFF36F8FF0E71CB53D4800210B46802270
:102F7000CDE900103BA13D48FFF7CCFA0446012CF7
:102F800015D100BF502080F31188BFF34F8FBFF3DE
:102F90006F8F00BF4FF0FF303549086001202B498B
:102FA000086000203349086000F051FC0DE0601C0F
:102FB00008B1012000E0002038B940F62A02AFF63F
:102FC0000801AFF2F07000F07DFF1CBD10B500BF2E
:102FD000502080F31188BFF34F8FBFF36F8F00BF76
:102FE00000201A49086000F0AAFC10BD21490868B9
:102FF000704770B500F007FD00251E4804682046A4
:1030000070BD13480068704770B5044614B90D4888
:10301000006800E0204605463DB940F63D12AFF697
:103020006801AFF6500000F04DFF05F1340070BDAF
:10303000F400002004ED00E0700000205C0000209F
:103040005000002038000020C4030020540000205D
:10305000480000209C030020B00300204400002012
:103060006C00002049444C4500000000472F000838
:10307000680000204C00002070B504460025FB4885
:10308000006808B9012000E0002038B940F6372276
:10309000AFF6DC01AFF6C40000F014FFFFF75BFCF5
:1030A000F34800682044F2490860FFF7A9FB054691
:1030B000284670BD70B504460D463CB940F6FA325C
:1030C000AFF60C11AFF6F40000F0FCFEE948016821
:1030D00018312046FEF710FB01212846FFF7FDFBC3
:1030E00070BD70B504460D4616463CB940F60B421D
:1030F000AFF63C11AFF6241000F0E4FEDB480068A8
:1031000008B1012000E0002038B940F60F42AFF6C8
:103110005811AFF6401000F0D5FE45F00040D549FB
:1031200009688861D348016818312046FEF7D8FA4B
:1031300001213046FFF7D1FB70BD70B50646F0683F
:10314000C4683CB940F65542AFF69411AFF67C1016
:1031500000F0B8FE04F11800FEF7E8FAC348006872
:10316000A8B9201DFEF7E2FA94F82C10012088403F
:10317000C14909680843C0490860E16A01EB81015F
:10318000BE4A02EB8100211DFEF7AAFA04E004F119
:103190001801BB48FEF7A4FAB649E06A0968C96A93
:1031A000884204D901250120B649086000E00025C5
:1031B000284670BD70B505460E46AC48006808B19B
:1031C000012000E0002038B940F68C42AFF618210B
:1031D000AFF6002000F076FE46F000402860EC6874
:1031E0003CB940F69442AFF63021AFF6182000F01B
:1031F00069FE2846FEF79AFA201DFEF797FA94F822
:103200002C10012088409C49096808439A490860AD
:10321000E16A01EB8101994A02EB8100211DFEF771
:103220005FFA9449E06A0968C96A884202D90120B4
:103230009449086070BD10B504463CB940F6B842E8
:10324000AFF68C21AFF6742000F03CFE00F088FB56
:103250008D48006820608D480068606000F0A3FB26
:1032600010BD894909680160884909684160704753
:1032700070B505460C463DB940F6CE42AFF6C821C2
:10328000AFF6B02000F01EFE3CB940F6CF42AFF6DC
:10329000D821AFF6C02000F015FE00F061FB7B489E
:1032A00002686868131A2068401C08B9002617E0F5
:1032B000754928680968884204D06868904201D836
:1032C00001260DE02068984207D92068C01A2060C6
:1032D0002846FFF7C6FF002602E0002020600126F6
:1032E00000F061FB304670BD012066490860704700
:1032F0006049086870476649096809B9012005E016
:103300005A49096809B9022000E00020704759496C
:103310000968886957490968C96AC1F12001554A95
:1033200012689161704770B506460D4600F018FBB3
:1033300050480068406C88B901204E49096881F8FE
:1033400048005DB101212846FFF7C7FA4FF08050D1
:1033500050490860BFF34F8FBFF36F8F00F023FB1E
:1033600000F0FEFA43480068446C4CB126B10020DE
:1033700040490968486403E0601E3E4909684864A2
:1033800000203C49096881F8480000F00CFB204609
:1033900070BD2DE9F0410746884614461D4600F0F1
:1033A000DFFA3448006890F84800022818D0314904
:1033B000096801F14400496CB943016001202D49BD
:1033C000096881F848005DB101212846FFF785FAB8
:1033D0004FF080502F490860BFF34F8FBFF36F8FBE
:1033E00000F0E1FA00F0BCFA1CB122480068406C21
:1033F00020602048006890F84800022801D000268C
:1034000008E01C49096801F14400496C21EA0801FF
:103410000160012600201749096881F8480000F082
:10342000C2FA3046BDE8F0812DE9F04706460D4668
:10343000174698464FF0010A3EB941F2B522AFF661
:103440008841AFF6704000F03DFD344600F088FA48
:10345000B8F1000F02D0606CC8F8000094F84890F2
:10346000022084F84800052F2ED215E070000020BD
:10347000580000203800002050000020F4000020F8
:103480009C0300205C000020600000204C00002015
:103490005400002004ED00E0DFE807F01503070BFF
:1034A0000D00606C284360641EE0606C401C60642A
:1034B0001AE0656418E0B9F1020F01D0656401E01B
:1034C0004FF0000A10E00FE0606C401C08B90120CA
:1034D00000E0002038B941F2E622AFF62451AFF601
:1034E0000C5000F0EFFC00BF00BFB9F1010F30D16C
:1034F000201DFEF71BF994F82C1001208840B049DC
:1035000009680843AE490860E16A01EB8101AD4AF0
:1035100002EB8100211DFEF7E3F8A06A08B9012043
:1035200000E0002038B941F2F522AFF67451AFF651
:103530005C5000F0C7FCA449E06A0968C96A884287
:1035400007D94FF08050A1490860BFF34F8FBFF3F8
:103550006F8F00F028FA5046BDE8F0872DE9F84F4C
:1035600007460E4690469946DDF828B001200090A7
:103570003FB941F22832AFF6C051AFF6A85000F083
:10358000A1FC00F040FA3C4600BF5021EFF311804F
:1035900081F31188BFF34F8FBFF36F8F00BF0546D4
:1035A000B9F1000F02D0606CC9F8000094F848A08F
:1035B000022084F84800B8F1050F17D2DFE808F0C0
:1035C0001503070B0D00606C304360641EE0606CF7
:1035D000401C60641AE0666418E0BAF1020F01D082
:1035E000666401E00020009010E00FE0606C401C79
:1035F00008B9012000E0002038B941F26B32AFF683
:103600004861AFF6306000F05DFC00BF00BFBAF16A
:10361000010F3AD1A06A08B9012000E0002038B9B2
:1036200041F27632AFF67061AFF6586000F04AFCB6
:1036300067480068A8B9201DFEF778F894F82C10A8
:10364000012088405E49096808435D490860E16AD5
:1036500001EB81015B4A02EB8100211DFEF740F87E
:1036600004E004F118015B48FEF73AF85649E06AB5
:103670000968C96A884208D9BBF1000F02D001204D
:10368000CBF8000001205449086000BF85F3118881
:1036900000BF0098BDE8F88F2DE9F04105460F46C0
:1036A0003DB941F2A832AFF6F061AFF6D86000F054
:1036B00009FC00F0A8F92C4600BF5021EFF311805F
:1036C00081F31188BFF34F8FBFF36F8F00BF0646A2
:1036D00094F84880022084F84800606C401C6064C4
:1036E000B8F1010F37D1A06A08B9012000E000202D
:1036F00038B941F2CE32AFF64071AFF6287000F023
:10370000E1FB33480068A8B9201DFEF70FF894F8D4
:103710002C10012088402A4909680843284908607C
:10372000E16A01EB8101274A02EB8100211DFDF7CF
:10373000D7FF04E004F118012648FDF7D1FF224924
:10374000E06A0968C96A884205D90FB1012038606A
:1037500001202149086000BF86F3118800BFBDE841
:10376000F08170B5054615B91748006800E0284695
:10377000064600F0F5F896F84800022804D100202B
:1037800086F84800012400E0002400F00CF92046EF
:1037900070BD2DE9F04104460D4614B90A48006891
:1037A00000E02046064600F0DBF807480068476C5A
:1037B000706CA843706400F0F6F83846BDE8F081FC
:1037C00050000020F40000203800002004ED00E04C
:1037D000700000209C0300205C000020A0480068CE
:1037E000401C08B9012000E0002020B9CA229DA198
:1037F000A6A000F067FB00BF502080F31188BFF344
:103800004F8FBFF36F8F00BF00BFFEE7001F4FF069
:1038100080730360001F21F001030360001F9F4BB2
:103820000360143802602038704700204FF0E02118
:10383000086188619A4800684FF47A71B0FBF1F032
:10384000401E4FF0E02148610720086170471CB519
:10385000944C204600780190FF20214608700846CD
:10386000007800909DF8000000F0F0009DF8001036
:10387000884201D1012000E0002028B94FF48A726B
:1038800078A182A000F01EFB9DF8000000F050001F
:103890008549087007208549086009E08348006869
:1038A000401E824908609DF800004006000E00900E
:1038B0009DF8000000F080008028EFD07B48006871
:1038C000C0F10700042801D1012000E0002028B940
:1038D00040F2271263A16DA000F0F4FA734800686B
:1038E000C0F10700042801D1012000E0002028B920
:1038F0004FF498725BA165A000F0E4FA6B48006891
:1039000000026A4908600846008800F4E060086028
:103910006449019808706648006840F47000644982
:1039200008600846006840F070400860FFF77DFFBF
:1039300000204B490860FCF717FC00201CBD10B5A7
:1039400047480068B0F57A7F01D1012000E00020EF
:1039500028B94FF4AB7243A14CA000F0B3FA10BDEC
:1039600010B500BF502080F31188BFF34F8FBFF315
:103970006F8F00BF3A480068401C3949086008460C
:10398000006801280ED14A481C380068C0B208B946
:10399000012000E0002028B94FF4B37231A13BA010
:1039A00000F090FA10BD10B52D48006828B940F21B
:1039B0006D122CA135A000F085FA29480068401E40
:1039C000274908600846006820B9002080F3118864
:1039D00000BF00BF10BD10B500BF502080F311889C
:1039E000BFF34F8FBFF36F8F00BFFEF741FE20B1D3
:1039F0004FF080502E491C39086000BF002080F332
:103A0000118800BF10BD70B5FCF7E4FB0546102D12
:103A100011D305F1E02090F8F04323480078844268
:103A200001DB012000E0002028B940F2A5220DA111
:103A300016A000F047FA1E481438006800F4E06051
:103A40001A490968884201D8012000E0002028B9FD
:103A500040F2B52203A10DA000F034FA70BD0000C1
:103A6000740000202E2E5C2E2E5C4672656552542A
:103A70004F535C706F72745C525644535C41524DAC
:103A80005F434D335C706F72742E63004572726FCA
:103A9000723A25732C25640D0A000000DD370008FA
:103AA0000000002000E400E0780000207C000020FE
:103AB00020ED00E010B50146B14800E00068036861
:103AC0008B42FBD30246436813448B4204D14368C4
:103AD0004C682344436001460A464B68134404681B
:103AE000A34211D1A74C03682468A34208D04B68B5
:103AF0000468646823444B6003681B680B6005E03E
:103B0000A04B1B680B6001E003680B60884200D08B
:103B1000016010BD30B54FF410439B4800F007041E
:103B20002CB1C01D20F00700974C041B1B1B024644
:103B3000934C22600024924D6C60D018083820F01D
:103B40000700904C206000248E4D2D686C608D4DD8
:103B50002D682C601146441A4C608A4C24680C6015
:103B60008A4D4C682C608A4D4C682C604FF00044A4
:103B7000884D2C6030BD2DE9F04104464FF000081F
:103B8000FEF7E9FE7F48006808B9FFF7C3FF8148E8
:103B900000682040002864D1A4B1083404F0070074
:103BA00080B104F00700C0F10800044404F00700ED
:103BB00008B9012000E0002020B9972276A180A05A
:103BC00000F080F9002C4CD071480068844248D83D
:103BD0006B4E3046056801E02E462D686868A042AD
:103BE00002D228680028F7D166480068854238D09C
:103BF000306800F10808286830606868001B1028E9
:103C000013D92F1907F0070008B9012000E00020A0
:103C100020B9C42260A16AA000F054F96868001BB2
:103C200078606C603846FFF745FF59496868096855
:103C3000081A5749086008460068544909688842CC
:103C400003D25348006851490860524968680968BE
:103C500008436860002028605D480068401C5C499B
:103C60000860FEF7CDFD08F0070008B9012000E06C
:103C7000002028B940F2051247A151A000F022F916
:103C80004046BDE8F08170B506463546002E3AD074
:103C9000083D2C463F4960680968084008B101208A
:103CA00000E0002028B940F219123BA144A000F026
:103CB00009F9206808B9012000E0002028B94FF474
:103CC0008D7235A13EA000F0FDF8324960680968A8
:103CD0000840C0B12068B0B92E49606809688843BF
:103CE0006060FEF738FE2A49606809680844284980
:103CF00008602046FFF7DEFE36480068401C354964
:103D00000860FEF77DFD70BD2148006870471F48C0
:103D10000068704770472DE9F04104464FF00008F5
:103D20000026771EFEF717FE154805687DB100BF17
:103D300008F101086868B04200D96E686868B84246
:103D400000D26F682D680F4800688542F0D1FEF7F9
:103D500057FD6660A760C4F80C80FFF701FE0C48B1
:103D6000006820601A48006860611A480068A06115
:103D7000064800682061FFF716FEBDE8F0810000EC
:103D80008000002088000020D80300209000002040
:103D90008C0000209C0000202E2E5C2E2E5C467293
:103DA000656552544F535C706F72745C4D656D4D18
:103DB000616E675C686561705F342E6300000000AF
:103DC0004572726F723A25732C25640D0A0000004B
:103DD000940000209800002040EA01039B0703D0D4
:103DE00009E008C9121F08C0042AFAD203E011F83A
:103DF000013B00F8013B521EF9D270472DE9F05FFC
:103E00000546002092469B46884606468146402449
:103E10001BE0284641464746224600F042F85346FA
:103E20005A46C01A914110D311461846224600F056
:103E300029F82D1A67EB01084F4622460120002180
:103E400000F020F817EB00094E41201EA4F10104F8
:103E5000DFDC484631462A464346BDE8F09F000075
:103E6000064C074D06E0E06840F0010394E80700C7
:103E700098471034AC42F6D3FCF75EF9CC41000809
:103E8000EC410008202A04DB203A00FA02F100206D
:103E900070479140C2F1200320FA03F31943904088
:103EA0007047202A04DB203A21FA02F000217047F3
:103EB00021FA02F3D040C2F1200291400843194692
:103EC000704700000FB4054B10B503A9044A0298CF
:103ED00000F018F810BC5DF814FB0000F1150008A4
:103EE000A000002002E008C8121F08C1002AFAD171
:103EF00070477047002001E001C1121F002AFBD16A
:103F0000704700002DE9FF4F8DB09B460F460446D9
:103F1000002606E025280BD05A460F999047641CCE
:103F2000761C20780028F5D111B03046BDE8F08F1E
:103F30000025A8460122984900E0054314F8013FF6
:103F4000203B02FA03F00842F7D120782E2817D13F
:103F500014F8010F45F004052A280ED06FF02F0247
:103F60002078A0F1300109290AD808EB880102EB7A
:103F7000410100EB0108641CF2E757F8048B641C54
:103F800020786C280DD004DC4C2812D06A2811D17E
:103F900004E074280DD07A280CD10AE045F400150D
:103FA00007E0617845F48015814202D1641C05F573
:103FB0008015641C2278692A45D008DC002AB3D019
:103FC000582A69D0632A10D0642A08D13BE0702AAD
:103FD00067D0732A13D0752A5CD0782A5CD010463B
:103FE0005A460F999047761CD3E017F8040B8DF8CA
:103FF000000000208DF80100E946012003E057F899
:10400000049B4FF0FF3069074FF0000501D40AE030
:104010006D1C45450DDA8542FADB19F805100029BB
:10402000F6D106E06D1C8542FCDB19F8051000296D
:10403000F8D12E4404E019F8010B5A460F99904725
:104040006D1EF8D2A5E00A200021CDE90801C5F3D4
:10405000025002280DD001CFC117031E71F10003D9
:104060000DDA4FF0000CD0EB0C006CEB01012D23AE
:1040700008E0FF1D27F00707F7E80201EDE72B0531
:1040800004D52B238DF8283001233BE0EB0739D0F2
:104090002023F7E70A2000E010200021CDE90801E5
:1040A00007E01020002145F00405CDE908014FF09C
:1040B0000808C5F3025002280FD001CF00214FF0AD
:1040C000000A2B071FD5702A0DD0DDE908C38CF03C
:1040D000100C5CEA030C0CD015E0FF1D27F007075D
:1040E000F7E80201EBE740228DF828204FF0010AA3
:1040F0000BE050EA010306D030238DF828308DF80C
:10410000292002239A46582A04D024A20DF120091E
:104110000B9209E026A2F9E7DDE90823FFF76EFE1E
:104120000B9B9B5C09F8013D50EA0102F4D1ADEB19
:10413000090020300890680701D44FF00108089961
:10414000884502DDA8EB010000E000208046002544
:1041500006E00AA85A46405D0F9990476D1C761CF0
:104160005545F6DB04E030205A460F999047761CFF
:10417000B8F10001A8F10108F5DC05E019F8010B20
:104180005A460F999047761C0899481E08900029B6
:10419000F4DC641CC5E6000009280100303132332C
:1041A0003435363738396162636465660000000073
:1041B000303132333435363738394142434445465D
:1041C000000000000102030005050700EC410008A3
:1041D00000000020A4000000E43E00089042000817
:1041E000A400002034970000F43E000800A24A0416
:1041F0000000000000000000010203040607080997
:10420000000000000102030401020304060708097C
:10421000020406080000000000000000000000008A
:10422000000000000000000000000000000000008E
:10423000000000000000000000000000000000007E
:10424000000000000000000000000000000000006E
:10425000000000000000000000000000000000005E
:10426000AAAAAAAA000000000000000000000000A6
:10427000000000000000000000000000000000003E
:10428000000000000000000000000000000000002E
:0400000508000131BD
:00000001FF
